{
  "contractName": "ICO",
  "abi": [
    {
      "inputs": [
        {
          "internalType": "address",
          "name": "_token",
          "type": "address"
        }
      ],
      "stateMutability": "nonpayable",
      "type": "constructor"
    },
    {
      "inputs": [],
      "name": "swap",
      "outputs": [],
      "stateMutability": "payable",
      "type": "function"
    }
  ],
  "bytecode": "0x6080604052600a5f55348015610013575f80fd5b50604051610372380380610372833981810160405281019061003591906100d9565b8060015f6101000a81548173ffffffffffffffffffffffffffffffffffffffff021916908373ffffffffffffffffffffffffffffffffffffffff16021790555050610104565b5f80fd5b5f73ffffffffffffffffffffffffffffffffffffffff82169050919050565b5f6100a88261007f565b9050919050565b6100b88161009e565b81146100c2575f80fd5b50565b5f815190506100d3816100af565b92915050565b5f602082840312156100ee576100ed61007b565b5b5f6100fb848285016100c5565b91505092915050565b610261806101115f395ff3fe60806040526004361061001d575f3560e01c80638119c06514610021575b5f80fd5b61002961002b565b005b5f8054346100399190610111565b905060015f9054906101000a900473ffffffffffffffffffffffffffffffffffffffff1673ffffffffffffffffffffffffffffffffffffffff1663a9059cbb33836040518363ffffffff1660e01b81526004016100979291906101a0565b6020604051808303815f875af11580156100b3573d5f803e3d5ffd5b505050506040513d601f19601f820116820180604052508101906100d79190610200565b5050565b5f819050919050565b7f4e487b71000000000000000000000000000000000000000000000000000000005f52601160045260245ffd5b5f61011b826100db565b9150610126836100db565b9250828202610134816100db565b9150828204841483151761014b5761014a6100e4565b5b5092915050565b5f73ffffffffffffffffffffffffffffffffffffffff82169050919050565b5f61017b82610152565b9050919050565b61018b81610171565b82525050565b61019a816100db565b82525050565b5f6040820190506101b35f830185610182565b6101c06020830184610191565b9392505050565b5f80fd5b5f8115159050919050565b6101df816101cb565b81146101e9575f80fd5b50565b5f815190506101fa816101d6565b92915050565b5f60208284031215610215576102146101c7565b5b5f610222848285016101ec565b9150509291505056fea26469706673582212206123101be14b888ec5a832025099c926ab1525c7bd054fe9b6e9c561e062c6d564736f6c63430008140033",
  "immutableReferences": {},
  "source": "// SPDX-License-Identifier: MIT\n// OpenZeppelin Contracts (last updated v5.0.0) (token/ERC20/ERC20.sol)\n\npragma solidity ^0.8.20;\n\nimport {IERC20} from \"@openzeppelin/contracts/token/ERC20/IERC20.sol\";\nimport {IERC20Metadata} from \"@openzeppelin/contracts/token/ERC20/extensions/IERC20Metadata.sol\";\nimport {Context} from \"@openzeppelin/contracts/utils/Context.sol\";\nimport {IERC20Errors} from \"@openzeppelin/contracts/interfaces/draft-IERC6093.sol\";\nimport {ERC20} from \"@openzeppelin/contracts/token/ERC20/ERC20.sol\";\nimport {Ownable} from \"@openzeppelin/contracts/access/Ownable.sol\";\nimport {ERC20Capped} from \"@openzeppelin/contracts/token/ERC20/extensions/ERC20Capped.sol\";\nimport {ERC20Burnable} from \"@openzeppelin/contracts/token/ERC20/extensions/ERC20Burnable.sol\";\n\n\ncontract KiraToken is Ownable, ERC20Capped, ERC20Burnable{\n\n    uint8 constant DECIMALS=8;\n\n    constructor() ERC20(\"KiraToken\", \"KIRA\") Ownable(msg.sender) ERC20Capped(7900000*10**DECIMALS){\n    }\n\n    function mint(address to, uint256 amount) public onlyOwner {\n        _mint(to, amount);\n    }\n\n    function decimals() public override view returns (uint8) {\n        return DECIMALS;\n    }\n\n    function _update(address _account, address _to, uint256 value) internal override(ERC20,ERC20Capped){\n        super._update(_account,_to,value);\n    }\n}\n\ncontract ICO{\n    uint256 rate = 10; // 1 ETH = 10 KIRA\n\n    address token;\n\n    constructor(address _token){\n        token = _token;\n    }\n\n    function swap() payable public{\n        uint256 amount = msg.value * rate;       \n        ERC20(token).transfer(msg.sender,amount);\n    }\n}",
  "sourcePath": "/Users/karyna/Documents/robot/lecture_15/contracts/KiraContract.sol",
  "compiler": {
    "name": "solc",
    "version": "0.8.20+commit.a1b79de6.Emscripten.clang"
  },
  "schemaVersion": "3.4.16",
  "updatedAt": "2023-10-28T09:04:34.700Z",
  "devdoc": {
    "kind": "dev",
    "methods": {},
    "version": 1
  },
  "userdoc": {
    "kind": "user",
    "methods": {},
    "version": 1
  }
}