{
  "contractName": "KiraToken",
  "abi": [
    {
      "inputs": [],
      "stateMutability": "nonpayable",
      "type": "constructor"
    },
    {
      "inputs": [
        {
          "internalType": "uint256",
          "name": "increasedSupply",
          "type": "uint256"
        },
        {
          "internalType": "uint256",
          "name": "cap",
          "type": "uint256"
        }
      ],
      "name": "ERC20ExceededCap",
      "type": "error"
    },
    {
      "inputs": [
        {
          "internalType": "address",
          "name": "spender",
          "type": "address"
        },
        {
          "internalType": "uint256",
          "name": "allowance",
          "type": "uint256"
        },
        {
          "internalType": "uint256",
          "name": "needed",
          "type": "uint256"
        }
      ],
      "name": "ERC20InsufficientAllowance",
      "type": "error"
    },
    {
      "inputs": [
        {
          "internalType": "address",
          "name": "sender",
          "type": "address"
        },
        {
          "internalType": "uint256",
          "name": "balance",
          "type": "uint256"
        },
        {
          "internalType": "uint256",
          "name": "needed",
          "type": "uint256"
        }
      ],
      "name": "ERC20InsufficientBalance",
      "type": "error"
    },
    {
      "inputs": [
        {
          "internalType": "address",
          "name": "approver",
          "type": "address"
        }
      ],
      "name": "ERC20InvalidApprover",
      "type": "error"
    },
    {
      "inputs": [
        {
          "internalType": "uint256",
          "name": "cap",
          "type": "uint256"
        }
      ],
      "name": "ERC20InvalidCap",
      "type": "error"
    },
    {
      "inputs": [
        {
          "internalType": "address",
          "name": "receiver",
          "type": "address"
        }
      ],
      "name": "ERC20InvalidReceiver",
      "type": "error"
    },
    {
      "inputs": [
        {
          "internalType": "address",
          "name": "sender",
          "type": "address"
        }
      ],
      "name": "ERC20InvalidSender",
      "type": "error"
    },
    {
      "inputs": [
        {
          "internalType": "address",
          "name": "spender",
          "type": "address"
        }
      ],
      "name": "ERC20InvalidSpender",
      "type": "error"
    },
    {
      "inputs": [
        {
          "internalType": "address",
          "name": "owner",
          "type": "address"
        }
      ],
      "name": "OwnableInvalidOwner",
      "type": "error"
    },
    {
      "inputs": [
        {
          "internalType": "address",
          "name": "account",
          "type": "address"
        }
      ],
      "name": "OwnableUnauthorizedAccount",
      "type": "error"
    },
    {
      "anonymous": false,
      "inputs": [
        {
          "indexed": true,
          "internalType": "address",
          "name": "owner",
          "type": "address"
        },
        {
          "indexed": true,
          "internalType": "address",
          "name": "spender",
          "type": "address"
        },
        {
          "indexed": false,
          "internalType": "uint256",
          "name": "value",
          "type": "uint256"
        }
      ],
      "name": "Approval",
      "type": "event"
    },
    {
      "anonymous": false,
      "inputs": [
        {
          "indexed": true,
          "internalType": "address",
          "name": "previousOwner",
          "type": "address"
        },
        {
          "indexed": true,
          "internalType": "address",
          "name": "newOwner",
          "type": "address"
        }
      ],
      "name": "OwnershipTransferred",
      "type": "event"
    },
    {
      "anonymous": false,
      "inputs": [
        {
          "indexed": true,
          "internalType": "address",
          "name": "from",
          "type": "address"
        },
        {
          "indexed": true,
          "internalType": "address",
          "name": "to",
          "type": "address"
        },
        {
          "indexed": false,
          "internalType": "uint256",
          "name": "value",
          "type": "uint256"
        }
      ],
      "name": "Transfer",
      "type": "event"
    },
    {
      "inputs": [
        {
          "internalType": "address",
          "name": "owner",
          "type": "address"
        },
        {
          "internalType": "address",
          "name": "spender",
          "type": "address"
        }
      ],
      "name": "allowance",
      "outputs": [
        {
          "internalType": "uint256",
          "name": "",
          "type": "uint256"
        }
      ],
      "stateMutability": "view",
      "type": "function"
    },
    {
      "inputs": [
        {
          "internalType": "address",
          "name": "spender",
          "type": "address"
        },
        {
          "internalType": "uint256",
          "name": "value",
          "type": "uint256"
        }
      ],
      "name": "approve",
      "outputs": [
        {
          "internalType": "bool",
          "name": "",
          "type": "bool"
        }
      ],
      "stateMutability": "nonpayable",
      "type": "function"
    },
    {
      "inputs": [
        {
          "internalType": "address",
          "name": "account",
          "type": "address"
        }
      ],
      "name": "balanceOf",
      "outputs": [
        {
          "internalType": "uint256",
          "name": "",
          "type": "uint256"
        }
      ],
      "stateMutability": "view",
      "type": "function"
    },
    {
      "inputs": [
        {
          "internalType": "uint256",
          "name": "value",
          "type": "uint256"
        }
      ],
      "name": "burn",
      "outputs": [],
      "stateMutability": "nonpayable",
      "type": "function"
    },
    {
      "inputs": [
        {
          "internalType": "address",
          "name": "account",
          "type": "address"
        },
        {
          "internalType": "uint256",
          "name": "value",
          "type": "uint256"
        }
      ],
      "name": "burnFrom",
      "outputs": [],
      "stateMutability": "nonpayable",
      "type": "function"
    },
    {
      "inputs": [],
      "name": "cap",
      "outputs": [
        {
          "internalType": "uint256",
          "name": "",
          "type": "uint256"
        }
      ],
      "stateMutability": "view",
      "type": "function"
    },
    {
      "inputs": [],
      "name": "name",
      "outputs": [
        {
          "internalType": "string",
          "name": "",
          "type": "string"
        }
      ],
      "stateMutability": "view",
      "type": "function"
    },
    {
      "inputs": [],
      "name": "owner",
      "outputs": [
        {
          "internalType": "address",
          "name": "",
          "type": "address"
        }
      ],
      "stateMutability": "view",
      "type": "function"
    },
    {
      "inputs": [],
      "name": "renounceOwnership",
      "outputs": [],
      "stateMutability": "nonpayable",
      "type": "function"
    },
    {
      "inputs": [],
      "name": "symbol",
      "outputs": [
        {
          "internalType": "string",
          "name": "",
          "type": "string"
        }
      ],
      "stateMutability": "view",
      "type": "function"
    },
    {
      "inputs": [],
      "name": "totalSupply",
      "outputs": [
        {
          "internalType": "uint256",
          "name": "",
          "type": "uint256"
        }
      ],
      "stateMutability": "view",
      "type": "function"
    },
    {
      "inputs": [
        {
          "internalType": "address",
          "name": "to",
          "type": "address"
        },
        {
          "internalType": "uint256",
          "name": "value",
          "type": "uint256"
        }
      ],
      "name": "transfer",
      "outputs": [
        {
          "internalType": "bool",
          "name": "",
          "type": "bool"
        }
      ],
      "stateMutability": "nonpayable",
      "type": "function"
    },
    {
      "inputs": [
        {
          "internalType": "address",
          "name": "from",
          "type": "address"
        },
        {
          "internalType": "address",
          "name": "to",
          "type": "address"
        },
        {
          "internalType": "uint256",
          "name": "value",
          "type": "uint256"
        }
      ],
      "name": "transferFrom",
      "outputs": [
        {
          "internalType": "bool",
          "name": "",
          "type": "bool"
        }
      ],
      "stateMutability": "nonpayable",
      "type": "function"
    },
    {
      "inputs": [
        {
          "internalType": "address",
          "name": "newOwner",
          "type": "address"
        }
      ],
      "name": "transferOwnership",
      "outputs": [],
      "stateMutability": "nonpayable",
      "type": "function"
    },
    {
      "inputs": [
        {
          "internalType": "address",
          "name": "to",
          "type": "address"
        },
        {
          "internalType": "uint256",
          "name": "amount",
          "type": "uint256"
        }
      ],
      "name": "mint",
      "outputs": [],
      "stateMutability": "nonpayable",
      "type": "function"
    },
    {
      "inputs": [],
      "name": "decimals",
      "outputs": [
        {
          "internalType": "uint8",
          "name": "",
          "type": "uint8"
        }
      ],
      "stateMutability": "view",
      "type": "function"
    }
  ],
  "bytecode": "0x60a060405234801562000010575f80fd5b506008600a620000219190620003f2565b62788b6062000031919062000442565b6040518060400160405280600981526020017f4b697261546f6b656e00000000000000000000000000000000000000000000008152506040518060400160405280600481526020017f4b49524100000000000000000000000000000000000000000000000000000000815250335f73ffffffffffffffffffffffffffffffffffffffff168173ffffffffffffffffffffffffffffffffffffffff160362000111575f6040517f1e4fbdf7000000000000000000000000000000000000000000000000000000008152600401620001089190620004cf565b60405180910390fd5b62000122816200019f60201b60201c565b50816004908162000134919062000745565b50806005908162000146919062000745565b5050505f810362000190575f6040517f392e1e270000000000000000000000000000000000000000000000000000000081526004016200018791906200086a565b60405180910390fd5b80608081815250505062000885565b5f805f9054906101000a900473ffffffffffffffffffffffffffffffffffffffff169050815f806101000a81548173ffffffffffffffffffffffffffffffffffffffff021916908373ffffffffffffffffffffffffffffffffffffffff1602179055508173ffffffffffffffffffffffffffffffffffffffff168173ffffffffffffffffffffffffffffffffffffffff167f8be0079c531659141344cd1fd0a4f28419497f9722a3daafe3b4186f6b6457e060405160405180910390a35050565b7f4e487b71000000000000000000000000000000000000000000000000000000005f52601160045260245ffd5b5f8160011c9050919050565b5f808291508390505b6001851115620002ea57808604811115620002c257620002c162000260565b5b6001851615620002d25780820291505b8081029050620002e2856200028d565b9450620002a2565b94509492505050565b5f82620003045760019050620003d6565b8162000313575f9050620003d6565b81600181146200032c576002811462000337576200036d565b6001915050620003d6565b60ff8411156200034c576200034b62000260565b5b8360020a91508482111562000366576200036562000260565b5b50620003d6565b5060208310610133831016604e8410600b8410161715620003a75782820a905083811115620003a157620003a062000260565b5b620003d6565b620003b6848484600162000299565b92509050818404811115620003d057620003cf62000260565b5b81810290505b9392505050565b5f819050919050565b5f60ff82169050919050565b5f620003fe82620003dd565b91506200040b83620003e6565b92506200043a7fffffffffffffffffffffffffffffffffffffffffffffffffffffffffffffffff8484620002f3565b905092915050565b5f6200044e82620003dd565b91506200045b83620003dd565b92508282026200046b81620003dd565b9150828204841483151762000485576200048462000260565b5b5092915050565b5f73ffffffffffffffffffffffffffffffffffffffff82169050919050565b5f620004b7826200048c565b9050919050565b620004c981620004ab565b82525050565b5f602082019050620004e45f830184620004be565b92915050565b5f81519050919050565b7f4e487b71000000000000000000000000000000000000000000000000000000005f52604160045260245ffd5b7f4e487b71000000000000000000000000000000000000000000000000000000005f52602260045260245ffd5b5f60028204905060018216806200056657607f821691505b6020821081036200057c576200057b62000521565b5b50919050565b5f819050815f5260205f209050919050565b5f6020601f8301049050919050565b5f82821b905092915050565b5f60088302620005e07fffffffffffffffffffffffffffffffffffffffffffffffffffffffffffffffff82620005a3565b620005ec8683620005a3565b95508019841693508086168417925050509392505050565b5f819050919050565b5f6200062d620006276200062184620003dd565b62000604565b620003dd565b9050919050565b5f819050919050565b62000648836200060d565b62000660620006578262000634565b848454620005af565b825550505050565b5f90565b6200067662000668565b620006838184846200063d565b505050565b5b81811015620006aa576200069e5f826200066c565b60018101905062000689565b5050565b601f821115620006f957620006c38162000582565b620006ce8462000594565b81016020851015620006de578190505b620006f6620006ed8562000594565b83018262000688565b50505b505050565b5f82821c905092915050565b5f6200071b5f1984600802620006fe565b1980831691505092915050565b5f6200073583836200070a565b9150826002028217905092915050565b6200075082620004ea565b67ffffffffffffffff8111156200076c576200076b620004f4565b5b6200077882546200054e565b62000785828285620006ae565b5f60209050601f831160018114620007bb575f8415620007a6578287015190505b620007b2858262000728565b86555062000821565b601f198416620007cb8662000582565b5f5b82811015620007f457848901518255600182019150602085019450602081019050620007cd565b8683101562000814578489015162000810601f8916826200070a565b8355505b6001600288020188555050505b505050505050565b5f819050919050565b5f620008526200084c620008468462000829565b62000604565b620003dd565b9050919050565b620008648162000832565b82525050565b5f6020820190506200087f5f83018462000859565b92915050565b60805161139c6200089e5f395f610414015261139c5ff3fe608060405234801561000f575f80fd5b50600436106100fe575f3560e01c806370a082311161009557806395d89b411161006457806395d89b4114610286578063a9059cbb146102a4578063dd62ed3e146102d4578063f2fde38b14610304576100fe565b806370a0823114610212578063715018a61461024257806379cc67901461024c5780638da5cb5b14610268576100fe565b8063313ce567116100d1578063313ce5671461019e578063355274ea146101bc57806340c10f19146101da57806342966c68146101f6576100fe565b806306fdde0314610102578063095ea7b31461012057806318160ddd1461015057806323b872dd1461016e575b5f80fd5b61010a610320565b6040516101179190610fc3565b60405180910390f35b61013a60048036038101906101359190611074565b6103b0565b60405161014791906110cc565b60405180910390f35b6101586103d2565b60405161016591906110f4565b60405180910390f35b6101886004803603810190610183919061110d565b6103db565b60405161019591906110cc565b60405180910390f35b6101a6610409565b6040516101b39190611178565b60405180910390f35b6101c4610411565b6040516101d191906110f4565b60405180910390f35b6101f460048036038101906101ef9190611074565b610438565b005b610210600480360381019061020b9190611191565b61044e565b005b61022c600480360381019061022791906111bc565b610462565b60405161023991906110f4565b60405180910390f35b61024a6104a8565b005b61026660048036038101906102619190611074565b6104bb565b005b6102706104db565b60405161027d91906111f6565b60405180910390f35b61028e610502565b60405161029b9190610fc3565b60405180910390f35b6102be60048036038101906102b99190611074565b610592565b6040516102cb91906110cc565b60405180910390f35b6102ee60048036038101906102e9919061120f565b6105b4565b6040516102fb91906110f4565b60405180910390f35b61031e600480360381019061031991906111bc565b610636565b005b60606004805461032f9061127a565b80601f016020809104026020016040519081016040528092919081815260200182805461035b9061127a565b80156103a65780601f1061037d576101008083540402835291602001916103a6565b820191905f5260205f20905b81548152906001019060200180831161038957829003601f168201915b5050505050905090565b5f806103ba6106ba565b90506103c78185856106c1565b600191505092915050565b5f600354905090565b5f806103e56106ba565b90506103f28582856106d3565b6103fd858585610765565b60019150509392505050565b5f6008905090565b5f7f0000000000000000000000000000000000000000000000000000000000000000905090565b610440610855565b61044a82826108dc565b5050565b61045f6104596106ba565b8261095b565b50565b5f60015f8373ffffffffffffffffffffffffffffffffffffffff1673ffffffffffffffffffffffffffffffffffffffff1681526020019081526020015f20549050919050565b6104b0610855565b6104b95f6109da565b565b6104cd826104c76106ba565b836106d3565b6104d7828261095b565b5050565b5f805f9054906101000a900473ffffffffffffffffffffffffffffffffffffffff16905090565b6060600580546105119061127a565b80601f016020809104026020016040519081016040528092919081815260200182805461053d9061127a565b80156105885780601f1061055f57610100808354040283529160200191610588565b820191905f5260205f20905b81548152906001019060200180831161056b57829003601f168201915b5050505050905090565b5f8061059c6106ba565b90506105a9818585610765565b600191505092915050565b5f60025f8473ffffffffffffffffffffffffffffffffffffffff1673ffffffffffffffffffffffffffffffffffffffff1681526020019081526020015f205f8373ffffffffffffffffffffffffffffffffffffffff1673ffffffffffffffffffffffffffffffffffffffff1681526020019081526020015f2054905092915050565b61063e610855565b5f73ffffffffffffffffffffffffffffffffffffffff168173ffffffffffffffffffffffffffffffffffffffff16036106ae575f6040517f1e4fbdf70000000000000000000000000000000000000000000000000000000081526004016106a591906111f6565b60405180910390fd5b6106b7816109da565b50565b5f33905090565b6106ce8383836001610a9b565b505050565b5f6106de84846105b4565b90507fffffffffffffffffffffffffffffffffffffffffffffffffffffffffffffffff811461075f5781811015610750578281836040517ffb8f41b2000000000000000000000000000000000000000000000000000000008152600401610747939291906112aa565b60405180910390fd5b61075e84848484035f610a9b565b5b50505050565b5f73ffffffffffffffffffffffffffffffffffffffff168373ffffffffffffffffffffffffffffffffffffffff16036107d5575f6040517f96c6fd1e0000000000000000000000000000000000000000000000000000000081526004016107cc91906111f6565b60405180910390fd5b5f73ffffffffffffffffffffffffffffffffffffffff168273ffffffffffffffffffffffffffffffffffffffff1603610845575f6040517fec442f0500000000000000000000000000000000000000000000000000000000815260040161083c91906111f6565b60405180910390fd5b610850838383610c6a565b505050565b61085d6106ba565b73ffffffffffffffffffffffffffffffffffffffff1661087b6104db565b73ffffffffffffffffffffffffffffffffffffffff16146108da5761089e6106ba565b6040517f118cdaa70000000000000000000000000000000000000000000000000000000081526004016108d191906111f6565b60405180910390fd5b565b5f73ffffffffffffffffffffffffffffffffffffffff168273ffffffffffffffffffffffffffffffffffffffff160361094c575f6040517fec442f0500000000000000000000000000000000000000000000000000000000815260040161094391906111f6565b60405180910390fd5b6109575f8383610c6a565b5050565b5f73ffffffffffffffffffffffffffffffffffffffff168273ffffffffffffffffffffffffffffffffffffffff16036109cb575f6040517f96c6fd1e0000000000000000000000000000000000000000000000000000000081526004016109c291906111f6565b60405180910390fd5b6109d6825f83610c6a565b5050565b5f805f9054906101000a900473ffffffffffffffffffffffffffffffffffffffff169050815f806101000a81548173ffffffffffffffffffffffffffffffffffffffff021916908373ffffffffffffffffffffffffffffffffffffffff1602179055508173ffffffffffffffffffffffffffffffffffffffff168173ffffffffffffffffffffffffffffffffffffffff167f8be0079c531659141344cd1fd0a4f28419497f9722a3daafe3b4186f6b6457e060405160405180910390a35050565b5f73ffffffffffffffffffffffffffffffffffffffff168473ffffffffffffffffffffffffffffffffffffffff1603610b0b575f6040517fe602df05000000000000000000000000000000000000000000000000000000008152600401610b0291906111f6565b60405180910390fd5b5f73ffffffffffffffffffffffffffffffffffffffff168373ffffffffffffffffffffffffffffffffffffffff1603610b7b575f6040517f94280d62000000000000000000000000000000000000000000000000000000008152600401610b7291906111f6565b60405180910390fd5b8160025f8673ffffffffffffffffffffffffffffffffffffffff1673ffffffffffffffffffffffffffffffffffffffff1681526020019081526020015f205f8573ffffffffffffffffffffffffffffffffffffffff1673ffffffffffffffffffffffffffffffffffffffff1681526020019081526020015f20819055508015610c64578273ffffffffffffffffffffffffffffffffffffffff168473ffffffffffffffffffffffffffffffffffffffff167f8c5be1e5ebec7d5bd14f71427d1e84f3dd0314c0f7b2291e5b200ac8c7c3b92584604051610c5b91906110f4565b60405180910390a35b50505050565b610c75838383610c7a565b505050565b610c85838383610d1d565b5f73ffffffffffffffffffffffffffffffffffffffff168373ffffffffffffffffffffffffffffffffffffffff1603610d18575f610cc1610411565b90505f610ccc6103d2565b905081811115610d155780826040517f9e79f854000000000000000000000000000000000000000000000000000000008152600401610d0c9291906112df565b60405180910390fd5b50505b505050565b5f73ffffffffffffffffffffffffffffffffffffffff168373ffffffffffffffffffffffffffffffffffffffff1603610d6d578060035f828254610d619190611333565b92505081905550610e3d565b5f60015f8573ffffffffffffffffffffffffffffffffffffffff1673ffffffffffffffffffffffffffffffffffffffff1681526020019081526020015f2054905081811015610df7578381836040517fe450d38c000000000000000000000000000000000000000000000000000000008152600401610dee939291906112aa565b60405180910390fd5b81810360015f8673ffffffffffffffffffffffffffffffffffffffff1673ffffffffffffffffffffffffffffffffffffffff1681526020019081526020015f2081905550505b5f73ffffffffffffffffffffffffffffffffffffffff168273ffffffffffffffffffffffffffffffffffffffff1603610e84578060035f8282540392505081905550610ecf565b8060015f8473ffffffffffffffffffffffffffffffffffffffff1673ffffffffffffffffffffffffffffffffffffffff1681526020019081526020015f205f82825401925050819055505b8173ffffffffffffffffffffffffffffffffffffffff168373ffffffffffffffffffffffffffffffffffffffff167fddf252ad1be2c89b69c2b068fc378daa952ba7f163c4a11628f55a4df523b3ef83604051610f2c91906110f4565b60405180910390a3505050565b5f81519050919050565b5f82825260208201905092915050565b5f5b83811015610f70578082015181840152602081019050610f55565b5f8484015250505050565b5f601f19601f8301169050919050565b5f610f9582610f39565b610f9f8185610f43565b9350610faf818560208601610f53565b610fb881610f7b565b840191505092915050565b5f6020820190508181035f830152610fdb8184610f8b565b905092915050565b5f80fd5b5f73ffffffffffffffffffffffffffffffffffffffff82169050919050565b5f61101082610fe7565b9050919050565b61102081611006565b811461102a575f80fd5b50565b5f8135905061103b81611017565b92915050565b5f819050919050565b61105381611041565b811461105d575f80fd5b50565b5f8135905061106e8161104a565b92915050565b5f806040838503121561108a57611089610fe3565b5b5f6110978582860161102d565b92505060206110a885828601611060565b9150509250929050565b5f8115159050919050565b6110c6816110b2565b82525050565b5f6020820190506110df5f8301846110bd565b92915050565b6110ee81611041565b82525050565b5f6020820190506111075f8301846110e5565b92915050565b5f805f6060848603121561112457611123610fe3565b5b5f6111318682870161102d565b93505060206111428682870161102d565b925050604061115386828701611060565b9150509250925092565b5f60ff82169050919050565b6111728161115d565b82525050565b5f60208201905061118b5f830184611169565b92915050565b5f602082840312156111a6576111a5610fe3565b5b5f6111b384828501611060565b91505092915050565b5f602082840312156111d1576111d0610fe3565b5b5f6111de8482850161102d565b91505092915050565b6111f081611006565b82525050565b5f6020820190506112095f8301846111e7565b92915050565b5f806040838503121561122557611224610fe3565b5b5f6112328582860161102d565b92505060206112438582860161102d565b9150509250929050565b7f4e487b71000000000000000000000000000000000000000000000000000000005f52602260045260245ffd5b5f600282049050600182168061129157607f821691505b6020821081036112a4576112a361124d565b5b50919050565b5f6060820190506112bd5f8301866111e7565b6112ca60208301856110e5565b6112d760408301846110e5565b949350505050565b5f6040820190506112f25f8301856110e5565b6112ff60208301846110e5565b9392505050565b7f4e487b71000000000000000000000000000000000000000000000000000000005f52601160045260245ffd5b5f61133d82611041565b915061134883611041565b92508282019050808211156113605761135f611306565b5b9291505056fea2646970667358221220d56f272cd82d6a8c8dbb4c2616e8898d25ea1e0760c5ca92214262688237259264736f6c63430008140033",
  "immutableReferences": {
    "932": [
      {
        "length": 32,
        "start": 1044
      }
    ]
  },
  "source": "// SPDX-License-Identifier: MIT\n// OpenZeppelin Contracts (last updated v5.0.0) (token/ERC20/ERC20.sol)\n\npragma solidity ^0.8.20;\n\nimport {IERC20} from \"@openzeppelin/contracts/token/ERC20/IERC20.sol\";\nimport {IERC20Metadata} from \"@openzeppelin/contracts/token/ERC20/extensions/IERC20Metadata.sol\";\nimport {Context} from \"@openzeppelin/contracts/utils/Context.sol\";\nimport {IERC20Errors} from \"@openzeppelin/contracts/interfaces/draft-IERC6093.sol\";\nimport {ERC20} from \"@openzeppelin/contracts/token/ERC20/ERC20.sol\";\nimport {Ownable} from \"@openzeppelin/contracts/access/Ownable.sol\";\nimport {ERC20Capped} from \"@openzeppelin/contracts/token/ERC20/extensions/ERC20Capped.sol\";\nimport {ERC20Burnable} from \"@openzeppelin/contracts/token/ERC20/extensions/ERC20Burnable.sol\";\n\n\ncontract KiraToken is Ownable, ERC20Capped, ERC20Burnable{\n\n    uint8 constant DECIMALS=8;\n\n    constructor() ERC20(\"KiraToken\", \"KIRA\") Ownable(msg.sender) ERC20Capped(7900000*10**DECIMALS){\n    }\n\n    function mint(address to, uint256 amount) public onlyOwner {\n        _mint(to, amount);\n    }\n\n    function decimals() public override view returns (uint8) {\n        return DECIMALS;\n    }\n\n    function _update(address _account, address _to, uint256 value) internal override(ERC20,ERC20Capped){\n        super._update(_account,_to,value);\n    }\n}\n\ncontract ICO{\n    uint256 rate = 10; // 1 ETH = 10 KIRA\n\n    address token;\n\n    constructor(address _token){\n        token = _token;\n    }\n\n    function swap() payable public{\n        uint256 amount = msg.value * rate;       \n        ERC20(token).transfer(msg.sender,amount);\n    }\n}",
  "sourcePath": "/Users/karyna/Documents/robot/lecture_15/contracts/KiraContract.sol",
  "compiler": {
    "name": "solc",
    "version": "0.8.20+commit.a1b79de6.Emscripten.clang"
  },
  "schemaVersion": "3.4.16",
  "updatedAt": "2023-10-28T09:04:34.704Z",
  "devdoc": {
    "errors": {
      "ERC20ExceededCap(uint256,uint256)": [
        {
          "details": "Total supply cap has been exceeded."
        }
      ],
      "ERC20InsufficientAllowance(address,uint256,uint256)": [
        {
          "details": "Indicates a failure with the `spender`s `allowance`. Used in transfers.",
          "params": {
            "allowance": "Amount of tokens a `spender` is allowed to operate with.",
            "needed": "Minimum amount required to perform a transfer.",
            "spender": "Address that may be allowed to operate on tokens without being their owner."
          }
        }
      ],
      "ERC20InsufficientBalance(address,uint256,uint256)": [
        {
          "details": "Indicates an error related to the current `balance` of a `sender`. Used in transfers.",
          "params": {
            "balance": "Current balance for the interacting account.",
            "needed": "Minimum amount required to perform a transfer.",
            "sender": "Address whose tokens are being transferred."
          }
        }
      ],
      "ERC20InvalidApprover(address)": [
        {
          "details": "Indicates a failure with the `approver` of a token to be approved. Used in approvals.",
          "params": {
            "approver": "Address initiating an approval operation."
          }
        }
      ],
      "ERC20InvalidCap(uint256)": [
        {
          "details": "The supplied cap is not a valid cap."
        }
      ],
      "ERC20InvalidReceiver(address)": [
        {
          "details": "Indicates a failure with the token `receiver`. Used in transfers.",
          "params": {
            "receiver": "Address to which tokens are being transferred."
          }
        }
      ],
      "ERC20InvalidSender(address)": [
        {
          "details": "Indicates a failure with the token `sender`. Used in transfers.",
          "params": {
            "sender": "Address whose tokens are being transferred."
          }
        }
      ],
      "ERC20InvalidSpender(address)": [
        {
          "details": "Indicates a failure with the `spender` to be approved. Used in approvals.",
          "params": {
            "spender": "Address that may be allowed to operate on tokens without being their owner."
          }
        }
      ],
      "OwnableInvalidOwner(address)": [
        {
          "details": "The owner is not a valid owner account. (eg. `address(0)`)"
        }
      ],
      "OwnableUnauthorizedAccount(address)": [
        {
          "details": "The caller account is not authorized to perform an operation."
        }
      ]
    },
    "events": {
      "Approval(address,address,uint256)": {
        "details": "Emitted when the allowance of a `spender` for an `owner` is set by a call to {approve}. `value` is the new allowance."
      },
      "Transfer(address,address,uint256)": {
        "details": "Emitted when `value` tokens are moved from one account (`from`) to another (`to`). Note that `value` may be zero."
      }
    },
    "kind": "dev",
    "methods": {
      "allowance(address,address)": {
        "details": "See {IERC20-allowance}."
      },
      "approve(address,uint256)": {
        "details": "See {IERC20-approve}. NOTE: If `value` is the maximum `uint256`, the allowance is not updated on `transferFrom`. This is semantically equivalent to an infinite approval. Requirements: - `spender` cannot be the zero address."
      },
      "balanceOf(address)": {
        "details": "See {IERC20-balanceOf}."
      },
      "burn(uint256)": {
        "details": "Destroys a `value` amount of tokens from the caller. See {ERC20-_burn}."
      },
      "burnFrom(address,uint256)": {
        "details": "Destroys a `value` amount of tokens from `account`, deducting from the caller's allowance. See {ERC20-_burn} and {ERC20-allowance}. Requirements: - the caller must have allowance for ``accounts``'s tokens of at least `value`."
      },
      "cap()": {
        "details": "Returns the cap on the token's total supply."
      },
      "decimals()": {
        "details": "Returns the number of decimals used to get its user representation. For example, if `decimals` equals `2`, a balance of `505` tokens should be displayed to a user as `5.05` (`505 / 10 ** 2`). Tokens usually opt for a value of 18, imitating the relationship between Ether and Wei. This is the default value returned by this function, unless it's overridden. NOTE: This information is only used for _display_ purposes: it in no way affects any of the arithmetic of the contract, including {IERC20-balanceOf} and {IERC20-transfer}."
      },
      "name()": {
        "details": "Returns the name of the token."
      },
      "owner()": {
        "details": "Returns the address of the current owner."
      },
      "renounceOwnership()": {
        "details": "Leaves the contract without owner. It will not be possible to call `onlyOwner` functions. Can only be called by the current owner. NOTE: Renouncing ownership will leave the contract without an owner, thereby disabling any functionality that is only available to the owner."
      },
      "symbol()": {
        "details": "Returns the symbol of the token, usually a shorter version of the name."
      },
      "totalSupply()": {
        "details": "See {IERC20-totalSupply}."
      },
      "transfer(address,uint256)": {
        "details": "See {IERC20-transfer}. Requirements: - `to` cannot be the zero address. - the caller must have a balance of at least `value`."
      },
      "transferFrom(address,address,uint256)": {
        "details": "See {IERC20-transferFrom}. Emits an {Approval} event indicating the updated allowance. This is not required by the EIP. See the note at the beginning of {ERC20}. NOTE: Does not update the allowance if the current allowance is the maximum `uint256`. Requirements: - `from` and `to` cannot be the zero address. - `from` must have a balance of at least `value`. - the caller must have allowance for ``from``'s tokens of at least `value`."
      },
      "transferOwnership(address)": {
        "details": "Transfers ownership of the contract to a new account (`newOwner`). Can only be called by the current owner."
      }
    },
    "version": 1
  },
  "userdoc": {
    "kind": "user",
    "methods": {},
    "version": 1
  }
}