{
  "contractName": "Farmer",
  "abi": [
    {
      "inputs": [
        {
          "internalType": "uint256",
          "name": "",
          "type": "uint256"
        }
      ],
      "name": "animals",
      "outputs": [
        {
          "internalType": "address",
          "name": "",
          "type": "address"
        }
      ],
      "stateMutability": "view",
      "type": "function"
    },
    {
      "inputs": [
        {
          "internalType": "address",
          "name": "animalAddress",
          "type": "address"
        }
      ],
      "name": "addAnimal",
      "outputs": [],
      "stateMutability": "nonpayable",
      "type": "function"
    },
    {
      "inputs": [
        {
          "internalType": "uint256",
          "name": "index",
          "type": "uint256"
        }
      ],
      "name": "getAnimal",
      "outputs": [
        {
          "internalType": "contract Animal",
          "name": "",
          "type": "address"
        }
      ],
      "stateMutability": "view",
      "type": "function"
    },
    {
      "inputs": [
        {
          "internalType": "uint256",
          "name": "index",
          "type": "uint256"
        },
        {
          "internalType": "string",
          "name": "food",
          "type": "string"
        }
      ],
      "name": "feedByIndex",
      "outputs": [
        {
          "internalType": "string",
          "name": "",
          "type": "string"
        }
      ],
      "stateMutability": "view",
      "type": "function"
    },
    {
      "inputs": [
        {
          "internalType": "uint256",
          "name": "index",
          "type": "uint256"
        }
      ],
      "name": "callByIndex",
      "outputs": [
        {
          "internalType": "string",
          "name": "",
          "type": "string"
        }
      ],
      "stateMutability": "view",
      "type": "function"
    },
    {
      "inputs": [
        {
          "internalType": "address",
          "name": "animal",
          "type": "address"
        },
        {
          "internalType": "string",
          "name": "food",
          "type": "string"
        }
      ],
      "name": "feedByAddress",
      "outputs": [
        {
          "internalType": "string",
          "name": "",
          "type": "string"
        }
      ],
      "stateMutability": "view",
      "type": "function"
    },
    {
      "inputs": [
        {
          "internalType": "address",
          "name": "animal",
          "type": "address"
        }
      ],
      "name": "callByAddress",
      "outputs": [
        {
          "internalType": "string",
          "name": "",
          "type": "string"
        }
      ],
      "stateMutability": "view",
      "type": "function"
    }
  ],
  "bytecode": "0x608060405234801561001057600080fd5b50610a78806100206000396000f3fe608060405234801561001057600080fd5b506004361061007d5760003560e01c806345d3cc811161005b57806345d3cc81146100fe578063998dd3ca1461012e5780639d26373c1461015e578063b53d58201461018e5761007d565b80631436163e146100825780632261a7761461009e5780633c735ee6146100ce575b600080fd5b61009c6004803603810190610097919061053e565b6101be565b005b6100b860048036038101906100b391906105d0565b610224565b6040516100c591906106c0565b60405180910390f35b6100e860048036038101906100e39190610718565b6102b0565b6040516100f591906106c0565b60405180910390f35b61011860048036038101906101139190610778565b610344565b6040516101259190610804565b60405180910390f35b61014860048036038101906101439190610778565b61038b565b604051610155919061082e565b60405180910390f35b61017860048036038101906101739190610778565b6103ca565b60405161018591906106c0565b60405180910390f35b6101a860048036038101906101a3919061053e565b61044f565b6040516101b591906106c0565b60405180910390f35b6000819080600181540180825580915050600190039060005260206000200160009091909190916101000a81548173ffffffffffffffffffffffffffffffffffffffff021916908373ffffffffffffffffffffffffffffffffffffffff16021790555050565b60608373ffffffffffffffffffffffffffffffffffffffff1663728d9b7484846040518363ffffffff1660e01b8152600401610261929190610885565b600060405180830381865afa15801561027e573d6000803e3d6000fd5b505050506040513d6000823e3d601f19601f820116820180604052508101906102a791906109ca565b90509392505050565b60606102bb84610344565b73ffffffffffffffffffffffffffffffffffffffff1663728d9b7484846040518363ffffffff1660e01b81526004016102f5929190610885565b600060405180830381865afa158015610312573d6000803e3d6000fd5b505050506040513d6000823e3d601f19601f8201168201806040525081019061033b91906109ca565b90509392505050565b600080828154811061035957610358610a13565b5b9060005260206000200160009054906101000a900473ffffffffffffffffffffffffffffffffffffffff169050919050565b6000818154811061039b57600080fd5b906000526020600020016000915054906101000a900473ffffffffffffffffffffffffffffffffffffffff1681565b60606103d582610344565b73ffffffffffffffffffffffffffffffffffffffff166350d853156040518163ffffffff1660e01b8152600401600060405180830381865afa15801561041f573d6000803e3d6000fd5b505050506040513d6000823e3d601f19601f8201168201806040525081019061044891906109ca565b9050919050565b60608173ffffffffffffffffffffffffffffffffffffffff166350d853156040518163ffffffff1660e01b8152600401600060405180830381865afa15801561049c573d6000803e3d6000fd5b505050506040513d6000823e3d601f19601f820116820180604052508101906104c591906109ca565b9050919050565b6000604051905090565b600080fd5b600080fd5b600073ffffffffffffffffffffffffffffffffffffffff82169050919050565b600061050b826104e0565b9050919050565b61051b81610500565b811461052657600080fd5b50565b60008135905061053881610512565b92915050565b600060208284031215610554576105536104d6565b5b600061056284828501610529565b91505092915050565b600080fd5b600080fd5b600080fd5b60008083601f8401126105905761058f61056b565b5b8235905067ffffffffffffffff8111156105ad576105ac610570565b5b6020830191508360018202830111156105c9576105c8610575565b5b9250929050565b6000806000604084860312156105e9576105e86104d6565b5b60006105f786828701610529565b935050602084013567ffffffffffffffff811115610618576106176104db565b5b6106248682870161057a565b92509250509250925092565b600081519050919050565b600082825260208201905092915050565b60005b8381101561066a57808201518184015260208101905061064f565b60008484015250505050565b6000601f19601f8301169050919050565b600061069282610630565b61069c818561063b565b93506106ac81856020860161064c565b6106b581610676565b840191505092915050565b600060208201905081810360008301526106da8184610687565b905092915050565b6000819050919050565b6106f5816106e2565b811461070057600080fd5b50565b600081359050610712816106ec565b92915050565b600080600060408486031215610731576107306104d6565b5b600061073f86828701610703565b935050602084013567ffffffffffffffff8111156107605761075f6104db565b5b61076c8682870161057a565b92509250509250925092565b60006020828403121561078e5761078d6104d6565b5b600061079c84828501610703565b91505092915050565b6000819050919050565b60006107ca6107c56107c0846104e0565b6107a5565b6104e0565b9050919050565b60006107dc826107af565b9050919050565b60006107ee826107d1565b9050919050565b6107fe816107e3565b82525050565b600060208201905061081960008301846107f5565b92915050565b61082881610500565b82525050565b6000602082019050610843600083018461081f565b92915050565b82818337600083830152505050565b6000610864838561063b565b9350610871838584610849565b61087a83610676565b840190509392505050565b600060208201905081810360008301526108a0818486610858565b90509392505050565b600080fd5b7f4e487b7100000000000000000000000000000000000000000000000000000000600052604160045260246000fd5b6108e682610676565b810181811067ffffffffffffffff82111715610905576109046108ae565b5b80604052505050565b60006109186104cc565b905061092482826108dd565b919050565b600067ffffffffffffffff821115610944576109436108ae565b5b61094d82610676565b9050602081019050919050565b600061096d61096884610929565b61090e565b905082815260208101848484011115610989576109886108a9565b5b61099484828561064c565b509392505050565b600082601f8301126109b1576109b061056b565b5b81516109c184826020860161095a565b91505092915050565b6000602082840312156109e0576109df6104d6565b5b600082015167ffffffffffffffff8111156109fe576109fd6104db565b5b610a0a8482850161099c565b91505092915050565b7f4e487b7100000000000000000000000000000000000000000000000000000000600052603260045260246000fdfea2646970667358221220165174aed1edaaad70b9181535a78cc1f70b627a5d753d8bdb92d0e42d71eb2964736f6c63430008110033",
  "immutableReferences": {},
  "source": "pragma solidity 0.8.17;\n\ninterface Living{\n    function eat(string memory food) external returns(string memory);\n}\n\ncontract HasName{\n    string internal _name;\n    constructor(string memory name){\n        _name=name;\n    }\n\n    function getName() view public returns(string memory){\n        return _name;\n    }\n}\n\ncontract Animal is Living{\n    \n    function eat(string memory food) view virtual public returns(string memory){\n        return string.concat(string.concat(\"Animal eats \",food));\n    }\n\n    function sleep() view public returns(string memory){\n        return \"Z-z-z...\";\n    }\n\n    function speak() view virtual public returns(string memory){\n        return \"...\";\n    }\n\n    function compare(string memory str1, string memory str2) public pure returns (bool) {\n        return keccak256(abi.encodePacked(str1)) == keccak256(abi.encodePacked(str2));\n    }\n\n}\n\nabstract contract Herbivore is Animal, HasName{\n    string constant PLANT = \"plant\";\n    \n    modifier eatOnlyPlant(string memory food){\n        require(compare(food,PLANT),\"Can only eat plant food\");\n        _;\n    }\n\n    function eat(string memory food) view virtual override public eatOnlyPlant(food) returns(string memory){\n        return super.eat(food);\n    }\n}\n\nabstract contract Carnivore is Animal, HasName{\n    string constant MEAT = \"meat\";\n    modifier eatOnlyPlant(string memory food){\n        require(compare(food,MEAT),\"Can only eat meat food\");\n        _;\n    }\n\n    function eat(string memory food) view virtual override public eatOnlyPlant(food) returns(string memory){\n        return super.eat(food);\n    }\n}\n\nabstract contract Omnivore is Animal, HasName{\n    string constant MEAT = \"meat\";\n    string constant PLANT = \"plant\";\n\n    modifier eatPlantandMeet(string memory food){\n        if(compare(food,PLANT) || compare(food,MEAT)){\n            _;\n        }\n        revert(\"Can only eat meat or plant food\");\n        _;\n    }\n\n    function eat(string memory food) view virtual override public eatPlantandMeet(food) returns(string memory){\n        return super.eat(food);\n    }\n}\n\n\ncontract Cow is Herbivore{\n\n    constructor(string memory name) HasName(name){\n    }\n\n    function speak() view override public returns(string memory){\n        return \"Mooo\";\n    }\n}\n\ncontract Horse is Herbivore{\n\n    constructor(string memory name) HasName(name){\n    }\n    function speak() view override public returns(string memory){\n        return \"Igogo\";\n    }\n\n}\n\ncontract Wolf is Carnivore{\n    constructor(string memory name) HasName(name){\n    }\n    function speak() view override public returns(string memory){\n        return \"Awoo\";\n    }\n}\n\ncontract Dog is Omnivore{\n    constructor(string memory name) HasName(name){\n    }\n    function speak() view override public returns(string memory){\n        return \"Bow-wow\";\n    }\n}\n\n\ncontract Farmer {\n\n    address[] public animals;\n\n    function addAnimal(address animalAddress) public {\n        animals.push(animalAddress);\n    }\n\n    function getAnimal(uint256 index) view public returns(Animal){\n        return Animal(animals[index]);\n    }\n\n    function feedByIndex(uint256 index, string calldata food) view public returns(string memory){\n        return getAnimal(index).eat(food);\n    }\n\n    function callByIndex(uint256 index) view public returns(string memory){\n        return getAnimal(index).speak();\n    }\n\n    function feedByAddress(address animal, string calldata food) view public returns(string memory){\n        return Animal(animal).eat(food);\n    }\n\n    function callByAddress(address animal) view public returns(string memory){\n        return Animal(animal).speak();\n    }\n}",
  "sourcePath": "/Users/karyna/Documents/robot/lecture_14/contracts/AllContracts.sol",
  "compiler": {
    "name": "solc",
    "version": "0.8.17+commit.8df45f5f.Emscripten.clang"
  },
  "schemaVersion": "3.4.16",
  "updatedAt": "2023-10-12T19:04:05.147Z",
  "devdoc": {
    "kind": "dev",
    "methods": {},
    "version": 1
  },
  "userdoc": {
    "kind": "user",
    "methods": {},
    "version": 1
  }
}