{
  "contractName": "Animal",
  "abi": [
    {
      "inputs": [
        {
          "internalType": "string",
          "name": "food",
          "type": "string"
        }
      ],
      "name": "eat",
      "outputs": [
        {
          "internalType": "string",
          "name": "",
          "type": "string"
        }
      ],
      "stateMutability": "view",
      "type": "function"
    },
    {
      "inputs": [],
      "name": "sleep",
      "outputs": [
        {
          "internalType": "string",
          "name": "",
          "type": "string"
        }
      ],
      "stateMutability": "view",
      "type": "function"
    },
    {
      "inputs": [],
      "name": "speak",
      "outputs": [
        {
          "internalType": "string",
          "name": "",
          "type": "string"
        }
      ],
      "stateMutability": "view",
      "type": "function"
    },
    {
      "inputs": [
        {
          "internalType": "string",
          "name": "str1",
          "type": "string"
        },
        {
          "internalType": "string",
          "name": "str2",
          "type": "string"
        }
      ],
      "name": "compare",
      "outputs": [
        {
          "internalType": "bool",
          "name": "",
          "type": "bool"
        }
      ],
      "stateMutability": "pure",
      "type": "function"
    }
  ],
  "bytecode": "0x608060405234801561001057600080fd5b506105cf806100206000396000f3fe608060405234801561001057600080fd5b506004361061004c5760003560e01c8063133a473e146100515780633a96fdd71461006f57806350d853151461009f578063728d9b74146100bd575b600080fd5b6100596100ed565b6040516100669190610298565b60405180910390f35b61008960048036038101906100849190610403565b61012a565b6040516100969190610496565b60405180910390f35b6100a7610183565b6040516100b49190610298565b60405180910390f35b6100d760048036038101906100d291906104b1565b6101c0565b6040516100e49190610298565b60405180910390f35b60606040518060400160405280600881526020017f5a2d7a2d7a2e2e2e000000000000000000000000000000000000000000000000815250905090565b60008160405160200161013d9190610536565b60405160208183030381529060405280519060200120836040516020016101649190610536565b6040516020818303038152906040528051906020012014905092915050565b60606040518060400160405280600381526020017f2e2e2e0000000000000000000000000000000000000000000000000000000000815250905090565b6060816040516020016101d39190610573565b6040516020818303038152906040526040516020016101f29190610536565b6040516020818303038152906040529050919050565b600081519050919050565b600082825260208201905092915050565b60005b83811015610242578082015181840152602081019050610227565b60008484015250505050565b6000601f19601f8301169050919050565b600061026a82610208565b6102748185610213565b9350610284818560208601610224565b61028d8161024e565b840191505092915050565b600060208201905081810360008301526102b2818461025f565b905092915050565b6000604051905090565b600080fd5b600080fd5b600080fd5b600080fd5b7f4e487b7100000000000000000000000000000000000000000000000000000000600052604160045260246000fd5b6103108261024e565b810181811067ffffffffffffffff8211171561032f5761032e6102d8565b5b80604052505050565b60006103426102ba565b905061034e8282610307565b919050565b600067ffffffffffffffff82111561036e5761036d6102d8565b5b6103778261024e565b9050602081019050919050565b82818337600083830152505050565b60006103a66103a184610353565b610338565b9050828152602081018484840111156103c2576103c16102d3565b5b6103cd848285610384565b509392505050565b600082601f8301126103ea576103e96102ce565b5b81356103fa848260208601610393565b91505092915050565b6000806040838503121561041a576104196102c4565b5b600083013567ffffffffffffffff811115610438576104376102c9565b5b610444858286016103d5565b925050602083013567ffffffffffffffff811115610465576104646102c9565b5b610471858286016103d5565b9150509250929050565b60008115159050919050565b6104908161047b565b82525050565b60006020820190506104ab6000830184610487565b92915050565b6000602082840312156104c7576104c66102c4565b5b600082013567ffffffffffffffff8111156104e5576104e46102c9565b5b6104f1848285016103d5565b91505092915050565b600081905092915050565b600061051082610208565b61051a81856104fa565b935061052a818560208601610224565b80840191505092915050565b60006105428284610505565b915081905092915050565b7f416e696d616c2065617473200000000000000000000000000000000000000000815250565b600061057e8261054d565b600c8201915061058e8284610505565b91508190509291505056fea26469706673582212207fb8194cd6bdac26e290279677a561ac827055ae7ecdfcfc4f2c8091d4a0fac364736f6c63430008110033",
  "immutableReferences": {},
  "source": "pragma solidity 0.8.17;\n\ninterface Living{\n    function eat(string memory food) external returns(string memory);\n}\n\ncontract HasName{\n    string internal _name;\n    constructor(string memory name){\n        _name=name;\n    }\n\n    function getName() view public returns(string memory){\n        return _name;\n    }\n}\n\ncontract Animal is Living{\n    \n    function eat(string memory food) view virtual public returns(string memory){\n        return string.concat(string.concat(\"Animal eats \",food));\n    }\n\n    function sleep() view public returns(string memory){\n        return \"Z-z-z...\";\n    }\n\n    function speak() view virtual public returns(string memory){\n        return \"...\";\n    }\n\n    function compare(string memory str1, string memory str2) public pure returns (bool) {\n        return keccak256(abi.encodePacked(str1)) == keccak256(abi.encodePacked(str2));\n    }\n\n}\n\nabstract contract Herbivore is Animal, HasName{\n    string constant PLANT = \"plant\";\n    \n    modifier eatOnlyPlant(string memory food){\n        require(compare(food,PLANT),\"Can only eat plant food\");\n        _;\n    }\n\n    function eat(string memory food) view virtual override public eatOnlyPlant(food) returns(string memory){\n        return super.eat(food);\n    }\n}\n\nabstract contract Carnivore is Animal, HasName{\n    string constant MEAT = \"meat\";\n    modifier eatOnlyPlant(string memory food){\n        require(compare(food,MEAT),\"Can only eat meat food\");\n        _;\n    }\n\n    function eat(string memory food) view virtual override public eatOnlyPlant(food) returns(string memory){\n        return super.eat(food);\n    }\n}\n\nabstract contract Omnivore is Animal, HasName{\n    string constant MEAT = \"meat\";\n    string constant PLANT = \"plant\";\n\n    modifier eatPlantandMeet(string memory food){\n        if(compare(food,PLANT) || compare(food,MEAT)){\n            _;\n        }\n        revert(\"Can only eat meat or plant food\");\n        _;\n    }\n\n    function eat(string memory food) view virtual override public eatPlantandMeet(food) returns(string memory){\n        return super.eat(food);\n    }\n}\n\n\ncontract Cow is Herbivore{\n\n    constructor(string memory name) HasName(name){\n    }\n\n    function speak() view override public returns(string memory){\n        return \"Mooo\";\n    }\n}\n\ncontract Horse is Herbivore{\n\n    constructor(string memory name) HasName(name){\n    }\n    function speak() view override public returns(string memory){\n        return \"Igogo\";\n    }\n\n}\n\ncontract Wolf is Carnivore{\n    constructor(string memory name) HasName(name){\n    }\n    function speak() view override public returns(string memory){\n        return \"Awoo\";\n    }\n}\n\ncontract Dog is Omnivore{\n    constructor(string memory name) HasName(name){\n    }\n    function speak() view override public returns(string memory){\n        return \"Bow-wow\";\n    }\n}\n\n\ncontract Farmer {\n\n    address[] public animals;\n\n    function addAnimal(address animalAddress) public {\n        animals.push(animalAddress);\n    }\n\n    function getAnimal(uint256 index) view public returns(Animal){\n        return Animal(animals[index]);\n    }\n\n    function feedByIndex(uint256 index, string calldata food) view public returns(string memory){\n        return getAnimal(index).eat(food);\n    }\n\n    function callByIndex(uint256 index) view public returns(string memory){\n        return getAnimal(index).speak();\n    }\n\n    function feedByAddress(address animal, string calldata food) view public returns(string memory){\n        return Animal(animal).eat(food);\n    }\n\n    function callByAddress(address animal) view public returns(string memory){\n        return Animal(animal).speak();\n    }\n}",
  "sourcePath": "/Users/karyna/Documents/robot/lecture_14/contracts/AllContracts.sol",
  "compiler": {
    "name": "solc",
    "version": "0.8.17+commit.8df45f5f.Emscripten.clang"
  },
  "schemaVersion": "3.4.16",
  "updatedAt": "2023-10-12T19:04:05.133Z",
  "devdoc": {
    "kind": "dev",
    "methods": {},
    "version": 1
  },
  "userdoc": {
    "kind": "user",
    "methods": {},
    "version": 1
  }
}