{
  "contractName": "Dog",
  "abi": [
    {
      "inputs": [
        {
          "internalType": "string",
          "name": "name",
          "type": "string"
        }
      ],
      "stateMutability": "nonpayable",
      "type": "constructor"
    },
    {
      "inputs": [
        {
          "internalType": "string",
          "name": "str1",
          "type": "string"
        },
        {
          "internalType": "string",
          "name": "str2",
          "type": "string"
        }
      ],
      "name": "compare",
      "outputs": [
        {
          "internalType": "bool",
          "name": "",
          "type": "bool"
        }
      ],
      "stateMutability": "pure",
      "type": "function"
    },
    {
      "inputs": [
        {
          "internalType": "string",
          "name": "food",
          "type": "string"
        }
      ],
      "name": "eat",
      "outputs": [
        {
          "internalType": "string",
          "name": "",
          "type": "string"
        }
      ],
      "stateMutability": "view",
      "type": "function"
    },
    {
      "inputs": [],
      "name": "getName",
      "outputs": [
        {
          "internalType": "string",
          "name": "",
          "type": "string"
        }
      ],
      "stateMutability": "view",
      "type": "function"
    },
    {
      "inputs": [],
      "name": "sleep",
      "outputs": [
        {
          "internalType": "string",
          "name": "",
          "type": "string"
        }
      ],
      "stateMutability": "view",
      "type": "function"
    },
    {
      "inputs": [],
      "name": "speak",
      "outputs": [
        {
          "internalType": "string",
          "name": "",
          "type": "string"
        }
      ],
      "stateMutability": "view",
      "type": "function"
    }
  ],
  "bytecode": "0x60806040523480156200001157600080fd5b5060405162000da238038062000da28339818101604052810190620000379190620001e5565b80806000908162000049919062000481565b50505062000568565b6000604051905090565b600080fd5b600080fd5b600080fd5b600080fd5b6000601f19601f8301169050919050565b7f4e487b7100000000000000000000000000000000000000000000000000000000600052604160045260246000fd5b620000bb8262000070565b810181811067ffffffffffffffff82111715620000dd57620000dc62000081565b5b80604052505050565b6000620000f262000052565b9050620001008282620000b0565b919050565b600067ffffffffffffffff82111562000123576200012262000081565b5b6200012e8262000070565b9050602081019050919050565b60005b838110156200015b5780820151818401526020810190506200013e565b60008484015250505050565b60006200017e620001788462000105565b620000e6565b9050828152602081018484840111156200019d576200019c6200006b565b5b620001aa8482856200013b565b509392505050565b600082601f830112620001ca57620001c962000066565b5b8151620001dc84826020860162000167565b91505092915050565b600060208284031215620001fe57620001fd6200005c565b5b600082015167ffffffffffffffff8111156200021f576200021e62000061565b5b6200022d84828501620001b2565b91505092915050565b600081519050919050565b7f4e487b7100000000000000000000000000000000000000000000000000000000600052602260045260246000fd5b600060028204905060018216806200028957607f821691505b6020821081036200029f576200029e62000241565b5b50919050565b60008190508160005260206000209050919050565b60006020601f8301049050919050565b600082821b905092915050565b600060088302620003097fffffffffffffffffffffffffffffffffffffffffffffffffffffffffffffffff82620002ca565b620003158683620002ca565b95508019841693508086168417925050509392505050565b6000819050919050565b6000819050919050565b6000620003626200035c62000356846200032d565b62000337565b6200032d565b9050919050565b6000819050919050565b6200037e8362000341565b620003966200038d8262000369565b848454620002d7565b825550505050565b600090565b620003ad6200039e565b620003ba81848462000373565b505050565b5b81811015620003e257620003d6600082620003a3565b600181019050620003c0565b5050565b601f8211156200043157620003fb81620002a5565b6200040684620002ba565b8101602085101562000416578190505b6200042e6200042585620002ba565b830182620003bf565b50505b505050565b600082821c905092915050565b6000620004566000198460080262000436565b1980831691505092915050565b600062000471838362000443565b9150826002028217905092915050565b6200048c8262000236565b67ffffffffffffffff811115620004a857620004a762000081565b5b620004b4825462000270565b620004c1828285620003e6565b600060209050601f831160018114620004f95760008415620004e4578287015190505b620004f0858262000463565b86555062000560565b601f1984166200050986620002a5565b60005b8281101562000533578489015182556001820191506020850194506020810190506200050c565b868310156200055357848901516200054f601f89168262000443565b8355505b6001600288020188555050505b505050505050565b61082a80620005786000396000f3fe608060405234801561001057600080fd5b50600436106100575760003560e01c8063133a473e1461005c57806317d7de7c1461007a5780633a96fdd71461009857806350d85315146100c8578063728d9b74146100e6575b600080fd5b610064610116565b6040516100719190610427565b60405180910390f35b610082610153565b60405161008f9190610427565b60405180910390f35b6100b260048036038101906100ad9190610592565b6101e5565b6040516100bf9190610625565b60405180910390f35b6100d061023e565b6040516100dd9190610427565b60405180910390f35b61010060048036038101906100fb9190610640565b61027b565b60405161010d9190610427565b60405180910390f35b60606040518060400160405280600881526020017f5a2d7a2d7a2e2e2e000000000000000000000000000000000000000000000000815250905090565b606060008054610162906106b8565b80601f016020809104026020016040519081016040528092919081815260200182805461018e906106b8565b80156101db5780601f106101b0576101008083540402835291602001916101db565b820191906000526020600020905b8154815290600101906020018083116101be57829003601f168201915b5050505050905090565b6000816040516020016101f89190610725565b604051602081830303815290604052805190602001208360405160200161021f9190610725565b6040516020818303038152906040528051906020012014905092915050565b60606040518060400160405280600781526020017f426f772d776f7700000000000000000000000000000000000000000000000000815250905090565b6060816102bd816040518060400160405280600581526020017f706c616e740000000000000000000000000000000000000000000000000000008152506101e5565b806103035750610302816040518060400160405280600481526020017f6d656174000000000000000000000000000000000000000000000000000000008152506101e5565b5b15610314576103118361034f565b91505b6040517f08c379a000000000000000000000000000000000000000000000000000000000815260040161034690610788565b60405180910390fd5b60608160405160200161036291906107ce565b6040516020818303038152906040526040516020016103819190610725565b6040516020818303038152906040529050919050565b600081519050919050565b600082825260208201905092915050565b60005b838110156103d15780820151818401526020810190506103b6565b60008484015250505050565b6000601f19601f8301169050919050565b60006103f982610397565b61040381856103a2565b93506104138185602086016103b3565b61041c816103dd565b840191505092915050565b6000602082019050818103600083015261044181846103ee565b905092915050565b6000604051905090565b600080fd5b600080fd5b600080fd5b600080fd5b7f4e487b7100000000000000000000000000000000000000000000000000000000600052604160045260246000fd5b61049f826103dd565b810181811067ffffffffffffffff821117156104be576104bd610467565b5b80604052505050565b60006104d1610449565b90506104dd8282610496565b919050565b600067ffffffffffffffff8211156104fd576104fc610467565b5b610506826103dd565b9050602081019050919050565b82818337600083830152505050565b6000610535610530846104e2565b6104c7565b90508281526020810184848401111561055157610550610462565b5b61055c848285610513565b509392505050565b600082601f8301126105795761057861045d565b5b8135610589848260208601610522565b91505092915050565b600080604083850312156105a9576105a8610453565b5b600083013567ffffffffffffffff8111156105c7576105c6610458565b5b6105d385828601610564565b925050602083013567ffffffffffffffff8111156105f4576105f3610458565b5b61060085828601610564565b9150509250929050565b60008115159050919050565b61061f8161060a565b82525050565b600060208201905061063a6000830184610616565b92915050565b60006020828403121561065657610655610453565b5b600082013567ffffffffffffffff81111561067457610673610458565b5b61068084828501610564565b91505092915050565b7f4e487b7100000000000000000000000000000000000000000000000000000000600052602260045260246000fd5b600060028204905060018216806106d057607f821691505b6020821081036106e3576106e2610689565b5b50919050565b600081905092915050565b60006106ff82610397565b61070981856106e9565b93506107198185602086016103b3565b80840191505092915050565b600061073182846106f4565b915081905092915050565b7f43616e206f6e6c7920656174206d656174206f7220706c616e7420666f6f6400600082015250565b6000610772601f836103a2565b915061077d8261073c565b602082019050919050565b600060208201905081810360008301526107a181610765565b9050919050565b7f416e696d616c2065617473200000000000000000000000000000000000000000815250565b60006107d9826107a8565b600c820191506107e982846106f4565b91508190509291505056fea26469706673582212206056319fee47996c4840af7644273a660d10f0b80a326ffb5f7a25abc042468264736f6c63430008110033",
  "immutableReferences": {},
  "source": "pragma solidity 0.8.17;\n\ninterface Living{\n    function eat(string memory food) external returns(string memory);\n}\n\ncontract HasName{\n    string internal _name;\n    constructor(string memory name){\n        _name=name;\n    }\n\n    function getName() view public returns(string memory){\n        return _name;\n    }\n}\n\ncontract Animal is Living{\n    \n    function eat(string memory food) view virtual public returns(string memory){\n        return string.concat(string.concat(\"Animal eats \",food));\n    }\n\n    function sleep() view public returns(string memory){\n        return \"Z-z-z...\";\n    }\n\n    function speak() view virtual public returns(string memory){\n        return \"...\";\n    }\n\n    function compare(string memory str1, string memory str2) public pure returns (bool) {\n        return keccak256(abi.encodePacked(str1)) == keccak256(abi.encodePacked(str2));\n    }\n\n}\n\nabstract contract Herbivore is Animal, HasName{\n    string constant PLANT = \"plant\";\n    \n    modifier eatOnlyPlant(string memory food){\n        require(compare(food,PLANT),\"Can only eat plant food\");\n        _;\n    }\n\n    function eat(string memory food) view virtual override public eatOnlyPlant(food) returns(string memory){\n        return super.eat(food);\n    }\n}\n\nabstract contract Carnivore is Animal, HasName{\n    string constant MEAT = \"meat\";\n    modifier eatOnlyPlant(string memory food){\n        require(compare(food,MEAT),\"Can only eat meat food\");\n        _;\n    }\n\n    function eat(string memory food) view virtual override public eatOnlyPlant(food) returns(string memory){\n        return super.eat(food);\n    }\n}\n\nabstract contract Omnivore is Animal, HasName{\n    string constant MEAT = \"meat\";\n    string constant PLANT = \"plant\";\n\n    modifier eatPlantandMeet(string memory food){\n        if(compare(food,PLANT) || compare(food,MEAT)){\n            _;\n        }\n        revert(\"Can only eat meat or plant food\");\n        _;\n    }\n\n    function eat(string memory food) view virtual override public eatPlantandMeet(food) returns(string memory){\n        return super.eat(food);\n    }\n}\n\n\ncontract Cow is Herbivore{\n\n    constructor(string memory name) HasName(name){\n    }\n\n    function speak() view override public returns(string memory){\n        return \"Mooo\";\n    }\n}\n\ncontract Horse is Herbivore{\n\n    constructor(string memory name) HasName(name){\n    }\n    function speak() view override public returns(string memory){\n        return \"Igogo\";\n    }\n\n}\n\ncontract Wolf is Carnivore{\n    constructor(string memory name) HasName(name){\n    }\n    function speak() view override public returns(string memory){\n        return \"Awoo\";\n    }\n}\n\ncontract Dog is Omnivore{\n    constructor(string memory name) HasName(name){\n    }\n    function speak() view override public returns(string memory){\n        return \"Bow-wow\";\n    }\n}\n\n\ncontract Farmer {\n\n    address[] public animals;\n\n    function addAnimal(address animalAddress) public {\n        animals.push(animalAddress);\n    }\n\n    function getAnimal(uint256 index) view public returns(Animal){\n        return Animal(animals[index]);\n    }\n\n    function feedByIndex(uint256 index, string calldata food) view public returns(string memory){\n        return getAnimal(index).eat(food);\n    }\n\n    function callByIndex(uint256 index) view public returns(string memory){\n        return getAnimal(index).speak();\n    }\n\n    function feedByAddress(address animal, string calldata food) view public returns(string memory){\n        return Animal(animal).eat(food);\n    }\n\n    function callByAddress(address animal) view public returns(string memory){\n        return Animal(animal).speak();\n    }\n}",
  "sourcePath": "/Users/karyna/Documents/robot/lecture_14/contracts/AllContracts.sol",
  "compiler": {
    "name": "solc",
    "version": "0.8.17+commit.8df45f5f.Emscripten.clang"
  },
  "schemaVersion": "3.4.16",
  "updatedAt": "2023-10-12T19:04:05.142Z",
  "devdoc": {
    "kind": "dev",
    "methods": {},
    "version": 1
  },
  "userdoc": {
    "kind": "user",
    "methods": {},
    "version": 1
  }
}